{
  "contractName": "LiquityBase",
  "abi": [
    {
      "inputs": [],
      "name": "BORROWING_FEE_FLOOR",
      "outputs": [
        {
          "internalType": "uint256",
          "name": "",
          "type": "uint256"
        }
      ],
      "stateMutability": "view",
      "type": "function"
    },
    {
      "inputs": [],
      "name": "CCR",
      "outputs": [
        {
          "internalType": "uint256",
          "name": "",
          "type": "uint256"
        }
      ],
      "stateMutability": "view",
      "type": "function"
    },
    {
      "inputs": [],
      "name": "DECIMAL_PRECISION",
      "outputs": [
        {
          "internalType": "uint256",
          "name": "",
          "type": "uint256"
        }
      ],
      "stateMutability": "view",
      "type": "function"
    },
    {
      "inputs": [],
      "name": "LUSD_GAS_COMPENSATION",
      "outputs": [
        {
          "internalType": "uint256",
          "name": "",
          "type": "uint256"
        }
      ],
      "stateMutability": "view",
      "type": "function"
    },
    {
      "inputs": [],
      "name": "MCR",
      "outputs": [
        {
          "internalType": "uint256",
          "name": "",
          "type": "uint256"
        }
      ],
      "stateMutability": "view",
      "type": "function"
    },
    {
      "inputs": [],
      "name": "MIN_NET_DEBT",
      "outputs": [
        {
          "internalType": "uint256",
          "name": "",
          "type": "uint256"
        }
      ],
      "stateMutability": "view",
      "type": "function"
    },
    {
      "inputs": [],
      "name": "PERCENT_DIVISOR",
      "outputs": [
        {
          "internalType": "uint256",
          "name": "",
          "type": "uint256"
        }
      ],
      "stateMutability": "view",
      "type": "function"
    },
    {
      "inputs": [],
      "name": "_100pct",
      "outputs": [
        {
          "internalType": "uint256",
          "name": "",
          "type": "uint256"
        }
      ],
      "stateMutability": "view",
      "type": "function"
    },
    {
      "inputs": [],
      "name": "activePool",
      "outputs": [
        {
          "internalType": "contract IActivePool",
          "name": "",
          "type": "address"
        }
      ],
      "stateMutability": "view",
      "type": "function"
    },
    {
      "inputs": [],
      "name": "defaultPool",
      "outputs": [
        {
          "internalType": "contract IDefaultPool",
          "name": "",
          "type": "address"
        }
      ],
      "stateMutability": "view",
      "type": "function"
    },
    {
      "inputs": [],
      "name": "priceFeed",
      "outputs": [
        {
          "internalType": "contract IPriceFeed",
          "name": "",
          "type": "address"
        }
      ],
      "stateMutability": "view",
      "type": "function"
    },
    {
      "inputs": [],
      "name": "getEntireSystemColl",
      "outputs": [
        {
          "internalType": "uint256",
          "name": "entireSystemColl",
          "type": "uint256"
        }
      ],
      "stateMutability": "view",
      "type": "function"
    },
    {
      "inputs": [],
      "name": "getEntireSystemDebt",
      "outputs": [
        {
          "internalType": "uint256",
          "name": "entireSystemDebt",
          "type": "uint256"
        }
      ],
      "stateMutability": "view",
      "type": "function"
    }
  ],
  "bytecode": "0x608060405234801561001057600080fd5b50610746806100206000396000f3fe608060405234801561001057600080fd5b50600436106100cf5760003560e01c8063741bef1a1161008c5780637f7dde4a116100665780637f7dde4a1461023a578063887105d314610284578063a20baee6146102a2578063f92d3433146102c0576100cf565b8063741bef1a146101b4578063794e5724146101fe578063795d26c31461021c576100cf565b80631bf43555146100d45780632e86bbd8146100f25780633cc74225146101105780634870dd9a1461015a5780635733d58f1461017857806372fe25aa14610196575b600080fd5b6100dc6102de565b6040518082815260200191505060405180910390f35b6100fa6102eb565b6040518082815260200191505060405180910390f35b6101186102f8565b604051808273ffffffffffffffffffffffffffffffffffffffff1673ffffffffffffffffffffffffffffffffffffffff16815260200191505060405180910390f35b61016261031e565b6040518082815260200191505060405180910390f35b610180610323565b6040518082815260200191505060405180910390f35b61019e61032f565b6040518082815260200191505060405180910390f35b6101bc61033b565b604051808273ffffffffffffffffffffffffffffffffffffffff1673ffffffffffffffffffffffffffffffffffffffff16815260200191505060405180910390f35b610206610361565b6040518082815260200191505060405180910390f35b61022461036d565b6040518082815260200191505060405180910390f35b6102426104d5565b604051808273ffffffffffffffffffffffffffffffffffffffff1673ffffffffffffffffffffffffffffffffffffffff16815260200191505060405180910390f35b61028c6104fa565b6040518082815260200191505060405180910390f35b6102aa610662565b6040518082815260200191505060405180910390f35b6102c861066e565b6040518082815260200191505060405180910390f35b6809c2007651b250000081565b6801158e460913d0000081565b600160009054906101000a900473ffffffffffffffffffffffffffffffffffffffff1681565b60c881565b6714d1120d7b16000081565b670de0b6b3a764000081565b600260009054906101000a900473ffffffffffffffffffffffffffffffffffffffff1681565b670f43fc2c04ee000081565b6000806000809054906101000a900473ffffffffffffffffffffffffffffffffffffffff1673ffffffffffffffffffffffffffffffffffffffff16635eb52fca6040518163ffffffff1660e01b815260040160206040518083038186803b1580156103d757600080fd5b505afa1580156103eb573d6000803e3d6000fd5b505050506040513d602081101561040157600080fd5b810190808051906020019092919050505090506000600160009054906101000a900473ffffffffffffffffffffffffffffffffffffffff1673ffffffffffffffffffffffffffffffffffffffff16635eb52fca6040518163ffffffff1660e01b815260040160206040518083038186803b15801561047e57600080fd5b505afa158015610492573d6000803e3d6000fd5b505050506040513d60208110156104a857600080fd5b810190808051906020019092919050505090506104ce818361068890919063ffffffff16565b9250505090565b6000809054906101000a900473ffffffffffffffffffffffffffffffffffffffff1681565b6000806000809054906101000a900473ffffffffffffffffffffffffffffffffffffffff1673ffffffffffffffffffffffffffffffffffffffff166314f6c3be6040518163ffffffff1660e01b815260040160206040518083038186803b15801561056457600080fd5b505afa158015610578573d6000803e3d6000fd5b505050506040513d602081101561058e57600080fd5b810190808051906020019092919050505090506000600160009054906101000a900473ffffffffffffffffffffffffffffffffffffffff1673ffffffffffffffffffffffffffffffffffffffff166314f6c3be6040518163ffffffff1660e01b815260040160206040518083038186803b15801561060b57600080fd5b505afa15801561061f573d6000803e3d6000fd5b505050506040513d602081101561063557600080fd5b8101908080519060200190929190505050905061065b818361068890919063ffffffff16565b9250505090565b670de0b6b3a764000081565b60056103e8670de0b6b3a76400008161068357fe5b040281565b600080828401905083811015610706576040517f08c379a000000000000000000000000000000000000000000000000000000000815260040180806020018281038252601b8152602001807f536166654d6174683a206164646974696f6e206f766572666c6f77000000000081525060200191505060405180910390fd5b809150509291505056fea2646970667358221220a7a22510fa2d0d1431ee73fee83c9f57611ad059ba9ac66fdb87e5cc6cf5ad6264736f6c634300060b0033",
  "immutableReferences": {},
  "source": "// SPDX-License-Identifier: MIT\n\npragma solidity 0.6.11;\n\nimport \"./BaseMath.sol\";\nimport \"./LiquityMath.sol\";\nimport \"../Interfaces/IActivePool.sol\";\nimport \"../Interfaces/IDefaultPool.sol\";\nimport \"../Interfaces/IPriceFeed.sol\";\nimport \"../Interfaces/ILiquityBase.sol\";\n\n/* \n* Base contract for TroveManager, BorrowerOperations and StabilityPool. Contains global system constants and\n* common functions. \n*/\ncontract LiquityBase is BaseMath, ILiquityBase {\n    using SafeMath for uint;\n\n    uint constant public _100pct = 1000000000000000000; // 1e18 == 100%\n\n    // Minimum collateral ratio for individual troves\n    uint constant public MCR = 1100000000000000000; // 110%\n\n    // Critical system collateral ratio. If the system's total collateral ratio (TCR) falls below the CCR, Recovery Mode is triggered.\n    uint constant public CCR = 1500000000000000000; // 150%\n\n    // Amount of LUSD to be locked in gas pool on opening troves\n    uint constant public LUSD_GAS_COMPENSATION = 20e18;\n\n    // Minimum amount of net LUSD debt a trove must have\n    uint constant public MIN_NET_DEBT = 180e18;\n    // uint constant public MIN_NET_DEBT = 0; \n\n    uint constant public PERCENT_DIVISOR = 200; // dividing by 200 yields 0.5%\n\n    uint constant public BORROWING_FEE_FLOOR = DECIMAL_PRECISION / 1000 * 5; // 0.5%\n\n    IActivePool public activePool;\n\n    IDefaultPool public defaultPool;\n\n    IPriceFeed public override priceFeed;\n\n    // --- Gas compensation functions ---\n\n    // Returns the composite debt (drawn debt + gas compensation) of a trove, for the purpose of ICR calculation\n    function _getCompositeDebt(uint _debt) internal pure returns (uint) {\n        return _debt.add(LUSD_GAS_COMPENSATION);\n    }\n\n    function _getNetDebt(uint _debt) internal pure returns (uint) {\n        return _debt.sub(LUSD_GAS_COMPENSATION);\n    }\n\n    // Return the amount of ETH to be drawn from a trove's collateral and sent as gas compensation.\n    function _getCollGasCompensation(uint _entireColl) internal pure returns (uint) {\n        return _entireColl / PERCENT_DIVISOR;\n    }\n\n    function getEntireSystemColl() public view returns (uint entireSystemColl) {\n        uint activeColl = activePool.getETH();\n        uint liquidatedColl = defaultPool.getETH();\n\n        return activeColl.add(liquidatedColl);\n    }\n\n    function getEntireSystemDebt() public view returns (uint entireSystemDebt) {\n        uint activeDebt = activePool.getLUSDDebt();\n        uint closedDebt = defaultPool.getLUSDDebt();\n\n        return activeDebt.add(closedDebt);\n    }\n\n    function _getTCR(uint _price) internal view returns (uint TCR) {\n        uint entireSystemColl = getEntireSystemColl();\n        uint entireSystemDebt = getEntireSystemDebt();\n\n        TCR = LiquityMath._computeCR(entireSystemColl, entireSystemDebt, _price);\n\n        return TCR;\n    }\n\n    function _checkRecoveryMode(uint _price) internal view returns (bool) {\n        uint TCR = _getTCR(_price);\n\n        return TCR < CCR;\n    }\n\n    function _requireUserAcceptsFee(uint _fee, uint _amount, uint _maxFeePercentage) internal pure {\n        uint feePercentage = _fee.mul(DECIMAL_PRECISION).div(_amount);\n        require(feePercentage <= _maxFeePercentage, \"Fee exceeded provided maximum\");\n    }\n}\n",
  "sourcePath": "/Users/mac/Github/triangle-pricefeed/contracts/Dependencies/LiquityBase.sol",
  "compiler": {
    "name": "solc",
    "version": "0.6.11+commit.5ef660b1.Emscripten.clang"
  },
  "schemaVersion": "3.3.4",
  "updatedAt": "2021-12-04T04:33:24.397Z",
  "devdoc": {
    "kind": "dev",
    "methods": {},
    "version": 1
  },
  "userdoc": {
    "kind": "user",
    "methods": {},
    "version": 1
  }
}