{
  "contractName": "PriceFeed",
  "abi": [
    {
      "anonymous": false,
      "inputs": [
        {
          "indexed": false,
          "internalType": "uint256",
          "name": "_lastGoodPrice",
          "type": "uint256"
        }
      ],
      "name": "LastGoodPriceUpdated",
      "type": "event"
    },
    {
      "inputs": [],
      "name": "TARGET_DIGITS",
      "outputs": [
        {
          "internalType": "uint256",
          "name": "",
          "type": "uint256"
        }
      ],
      "stateMutability": "view",
      "type": "function",
      "constant": true
    },
    {
      "inputs": [],
      "name": "assetID",
      "outputs": [
        {
          "internalType": "bytes32",
          "name": "",
          "type": "bytes32"
        }
      ],
      "stateMutability": "view",
      "type": "function",
      "constant": true
    },
    {
      "inputs": [],
      "name": "lastGoodPrice",
      "outputs": [
        {
          "internalType": "uint256",
          "name": "",
          "type": "uint256"
        }
      ],
      "stateMutability": "view",
      "type": "function",
      "constant": true
    },
    {
      "inputs": [],
      "name": "witnet",
      "outputs": [
        {
          "internalType": "contract IERC2362",
          "name": "",
          "type": "address"
        }
      ],
      "stateMutability": "view",
      "type": "function",
      "constant": true
    },
    {
      "inputs": [
        {
          "internalType": "address",
          "name": "_IWitnetCFXUSDTAddress",
          "type": "address"
        }
      ],
      "name": "initialize",
      "outputs": [],
      "stateMutability": "nonpayable",
      "type": "function"
    },
    {
      "inputs": [],
      "name": "getPrice",
      "outputs": [
        {
          "internalType": "uint256",
          "name": "",
          "type": "uint256"
        }
      ],
      "stateMutability": "view",
      "type": "function",
      "constant": true
    },
    {
      "inputs": [],
      "name": "fetchPrice",
      "outputs": [
        {
          "internalType": "uint256",
          "name": "",
          "type": "uint256"
        }
      ],
      "stateMutability": "nonpayable",
      "type": "function"
    }
  ],
  "bytecode": "0x608060405234801561001057600080fd5b506109c5806100206000396000f3fe608060405234801561001057600080fd5b506004361061009a576000357c01000000000000000000000000000000000000000000000000000000009004806346d1d21a1161007857806346d1d21a146100f95780636d6a28591461014357806398d5fdca14610161578063c4d66de81461017f5761009a565b80630490be831461009f5780630fdb11cf146100bd5780631be5c92f146100db575b600080fd5b6100a76101c3565b6040518082815260200191505060405180910390f35b6100c56101c9565b6040518082815260200191505060405180910390f35b6100e3610213565b6040518082815260200191505060405180910390f35b610101610218565b604051808273ffffffffffffffffffffffffffffffffffffffff1673ffffffffffffffffffffffffffffffffffffffff16815260200191505060405180910390f35b61014b61023e565b6040518082815260200191505060405180910390f35b610169610265565b6040518082815260200191505060405180910390f35b6101c16004803603602081101561019557600080fd5b81019080803573ffffffffffffffffffffffffffffffffffffffff16906020019092919050505061026f565b005b60015481565b60006101d36108f4565b6101ff7f65784185a07d3add5e7a99a6ddd4477e3c8caad717bac3ba3c3361d99a978c296001026103f9565b905061020a8161050b565b60015491505090565b601281565b600060029054906101000a900473ffffffffffffffffffffffffffffffffffffffff1681565b7f65784185a07d3add5e7a99a6ddd4477e3c8caad717bac3ba3c3361d99a978c2960010281565b6000600154905090565b600060019054906101000a900460ff168061028e575061028d6105c9565b5b806102a557506000809054906101000a900460ff16155b6102fa576040517f08c379a000000000000000000000000000000000000000000000000000000000815260040180806020018281038252602e815260200180610916602e913960400191505060405180910390fd5b60008060019054906101000a900460ff16159050801561034a576001600060016101000a81548160ff02191690831515021790555060016000806101000a81548160ff0219169083151502179055505b610353826105e0565b81600060026101000a81548173ffffffffffffffffffffffffffffffffffffffff021916908373ffffffffffffffffffffffffffffffffffffffff16021790555061039c6108f4565b6103c87f65784185a07d3add5e7a99a6ddd4477e3c8caad717bac3ba3c3361d99a978c296001026103f9565b90506103d38161050b565b5080156103f55760008060016101000a81548160ff0219169083151502179055505b5050565b6104016108f4565b600060029054906101000a900473ffffffffffffffffffffffffffffffffffffffff1673ffffffffffffffffffffffffffffffffffffffff1663f78eea83836040518263ffffffff167c01000000000000000000000000000000000000000000000000000000000281526004018082815260200191505060606040518083038186803b15801561049057600080fd5b505afa9250505080156104d857506040513d60608110156104b057600080fd5b8101908080519060200190929190805190602001909291908051906020019092919050505060015b6104e457809050610506565b8284600001818152505081846020018181525050808460400181815250505050505b919050565b60c8816040015114610568576040517f08c379a000000000000000000000000000000000000000000000000000000000815260040180806020018281038252602b815260200180610944602b913960400191505060405180910390fd5b600061057982600001516006610703565b905060015481146105c557806001819055507f4d29de21de555af78a62fc82dd4bc05e9ae5b0660a37f04729527e0f22780cd36001546040518082815260200191505060405180910390a15b5050565b6000803090506000813b9050600081149250505090565b600073ffffffffffffffffffffffffffffffffffffffff168173ffffffffffffffffffffffffffffffffffffffff161415610683576040517f08c379a000000000000000000000000000000000000000000000000000000000815260040180806020018281038252601e8152602001807f4163636f756e742063616e6e6f74206265207a65726f2061646472657373000081525060200191505060405180910390fd5b6000813b9050600081116106ff576040517f08c379a00000000000000000000000000000000000000000000000000000000081526004018080602001828103825260208152602001807f4163636f756e7420636f64652073697a652063616e6e6f74206265207a65726f81525060200191505060405180910390fd5b5050565b6000806012831061072e5761072760128403600a0a8561075e90919063ffffffff16565b9050610754565b60128310156107535761075083601203600a0a856107a890919063ffffffff16565b90505b5b8091505092915050565b60006107a083836040518060400160405280601a81526020017f536166654d6174683a206469766973696f6e206279207a65726f00000000000081525061082e565b905092915050565b6000808314156107bb5760009050610828565b60008284029050828482816107cc57fe5b0414610823576040517f08c379a000000000000000000000000000000000000000000000000000000000815260040180806020018281038252602181526020018061096f6021913960400191505060405180910390fd5b809150505b92915050565b600080831182906108da576040517f08c379a00000000000000000000000000000000000000000000000000000000081526004018080602001828103825283818151815260200191508051906020019080838360005b8381101561089f578082015181840152602081019050610884565b50505050905090810190601f1680156108cc5780820380516001836020036101000a031916815260200191505b509250505060405180910390fd5b5060008385816108e657fe5b049050809150509392505050565b6040518060600160405280600081526020016000815260200160008152509056fe496e697469616c697a61626c653a20636f6e747261637420697320616c726561647920696e697469616c697a65647769746e657420526573706f6e7365206973206e6f74203230302e20726573706f6e7365206572726f722e536166654d6174683a206d756c7469706c69636174696f6e206f766572666c6f77a26469706673582212200a57d4a4e81976debcc5522a55622f539ea3d06dbc5bb5e6f823f68c79deee5b64736f6c634300060b0033",
  "immutableReferences": {},
  "source": "// SPDX-License-Identifier: MIT\npragma solidity 0.6.11;\n\nimport \"./Dependencies/SafeMath.sol\";\nimport \"./Interfaces/IERC2362.sol\";\nimport \"./Interfaces/IPriceFeed.sol\";\nimport \"./Dependencies/Initializable.sol\";\nimport \"./Dependencies/CheckContract.sol\";\n\ncontract PriceFeed is CheckContract, IPriceFeed, Initializable {\n    using SafeMath for uint256;\n\n    uint constant public TARGET_DIGITS = 18;\n\n    // CFX/USDT assertID\n    bytes32 constant public assetID = bytes32(0x65784185a07d3add5e7a99a6ddd4477e3c8caad717bac3ba3c3361d99a978c29);\n\n    struct WitnetResponse {\n        int256 value;\n        uint256 _timestamp;\n        uint256 status;\n    }\n\n    IERC2362 public witnet;\n    uint public lastGoodPrice;\n\n    event LastGoodPriceUpdated(uint _lastGoodPrice);\n\n    // --- Dependency setters ---\n\n    function initialize(address _IWitnetCFXUSDTAddress) public initializer {\n        checkContract(_IWitnetCFXUSDTAddress);\n        witnet = IERC2362(_IWitnetCFXUSDTAddress);\n        WitnetResponse memory witnetResponse = _getCurrentWitnetResponse(assetID);\n        _storePrice(witnetResponse);\n    }\n\n    function getPrice() external view returns (uint) {\n        return lastGoodPrice;\n    }\n\n    function fetchPrice() external override returns (uint) {\n        WitnetResponse memory witnetResponse = _getCurrentWitnetResponse(assetID);\n        _storePrice(witnetResponse);\n        return lastGoodPrice;\n    }\n\n    function _getCurrentWitnetResponse(bytes32 _assetID) internal view returns(WitnetResponse memory response) {\n        try witnet.valueFor(_assetID) returns (\n            int256 value,\n            uint256 _timestamp,\n            uint256 status\n        ) {\n            response.value = value;\n            response._timestamp = _timestamp;\n            response.status = status;\n        } catch {\n            // If call to Chainlink aggregator reverts, return a zero response with success = false\n            return response;\n        }\n    }\n\n    function _storePrice(WitnetResponse memory witnetResponse) internal {\n        require(witnetResponse.status == 200, \"witnet Response is not 200. response error.\");\n        uint goodPrice = _scaleWitnetPriceByDigits(uint(witnetResponse.value), 6);\n        if (goodPrice != lastGoodPrice) {\n            lastGoodPrice = goodPrice;\n            emit LastGoodPriceUpdated(lastGoodPrice);\n        }\n    }\n\n    function _scaleWitnetPriceByDigits(uint _price, uint _answerDigits) internal pure returns (uint) {\n        /*\n        * Convert the price returned by the Chainlink oracle to an 18-digit decimal for use by Liquity.\n        * At date of Liquity launch, Chainlink uses an 8-digit price, but we also handle the possibility of\n        * future changes.\n        *\n        */\n        uint price;\n        if (_answerDigits >= TARGET_DIGITS) {\n            // Scale the returned price value down to Liquity's target precision\n            price = _price.div(10 ** (_answerDigits - TARGET_DIGITS));\n        }\n        else if (_answerDigits < TARGET_DIGITS) {\n            // Scale the returned price value up to Liquity's target precision\n            price = _price.mul(10 ** (TARGET_DIGITS - _answerDigits));\n        }\n        return price;\n    }\n\n}\n\n",
  "sourcePath": "/Users/mac/Github/triangle-pricefeed/contracts/PriceFeed.sol",
  "compiler": {
    "name": "solc",
    "version": "0.6.11+commit.5ef660b1.Linux.g++"
  },
  "schemaVersion": "3.3.4",
  "updatedAt": "2021-12-07T12:42:33.843Z",
  "networkType": "conflux",
  "devdoc": {
    "kind": "dev",
    "methods": {},
    "version": 1
  },
  "userdoc": {
    "kind": "user",
    "methods": {},
    "version": 1
  }
}