{
  "contractName": "TellorCaller",
  "abi": [
    {
      "inputs": [
        {
          "internalType": "address",
          "name": "_tellorMasterAddress",
          "type": "address"
        }
      ],
      "stateMutability": "nonpayable",
      "type": "constructor"
    },
    {
      "inputs": [],
      "name": "tellor",
      "outputs": [
        {
          "internalType": "contract ITellor",
          "name": "",
          "type": "address"
        }
      ],
      "stateMutability": "view",
      "type": "function"
    },
    {
      "inputs": [
        {
          "internalType": "uint256",
          "name": "_requestId",
          "type": "uint256"
        }
      ],
      "name": "getTellorCurrentValue",
      "outputs": [
        {
          "internalType": "bool",
          "name": "ifRetrieve",
          "type": "bool"
        },
        {
          "internalType": "uint256",
          "name": "value",
          "type": "uint256"
        },
        {
          "internalType": "uint256",
          "name": "_timestampRetrieved",
          "type": "uint256"
        }
      ],
      "stateMutability": "view",
      "type": "function"
    }
  ],
  "bytecode": "0x608060405234801561001057600080fd5b5060405161053f38038061053f8339818101604052602081101561003357600080fd5b8101908080519060200190929190505050806000806101000a81548173ffffffffffffffffffffffffffffffffffffffff021916908373ffffffffffffffffffffffffffffffffffffffff160217905550506104ab806100946000396000f3fe608060405234801561001057600080fd5b50600436106100365760003560e01c80631959ad5b1461003b57806332e6aadb14610085575b600080fd5b6100436100d9565b604051808273ffffffffffffffffffffffffffffffffffffffff1673ffffffffffffffffffffffffffffffffffffffff16815260200191505060405180910390f35b6100b16004803603602081101561009b57600080fd5b81019080803590602001909291905050506100fe565b6040518084151515158152602001838152602001828152602001935050505060405180910390f35b6000809054906101000a900473ffffffffffffffffffffffffffffffffffffffff1681565b6000806000806000809054906101000a900473ffffffffffffffffffffffffffffffffffffffff1673ffffffffffffffffffffffffffffffffffffffff166346eee1c4866040518263ffffffff1660e01b81526004018082815260200191505060206040518083038186803b15801561017657600080fd5b505afa15801561018a573d6000803e3d6000fd5b505050506040513d60208110156101a057600080fd5b8101908080519060200190929190505050905060008060009054906101000a900473ffffffffffffffffffffffffffffffffffffffff1673ffffffffffffffffffffffffffffffffffffffff166377fbb6638761020760018661036b90919063ffffffff16565b6040518363ffffffff1660e01b8152600401808381526020018281526020019250505060206040518083038186803b15801561024257600080fd5b505afa158015610256573d6000803e3d6000fd5b505050506040513d602081101561026c57600080fd5b8101908080519060200190929190505050905060008060009054906101000a900473ffffffffffffffffffffffffffffffffffffffff1673ffffffffffffffffffffffffffffffffffffffff166393fa491588846040518363ffffffff1660e01b8152600401808381526020018281526020019250505060206040518083038186803b1580156102fb57600080fd5b505afa15801561030f573d6000803e3d6000fd5b505050506040513d602081101561032557600080fd5b8101908080519060200190929190505050905060008111156103535760018183955095509550505050610364565b600080838191509550955095505050505b9193909250565b60006103ad83836040518060400160405280601e81526020017f536166654d6174683a207375627472616374696f6e206f766572666c6f7700008152506103b5565b905092915050565b6000838311158290610462576040517f08c379a00000000000000000000000000000000000000000000000000000000081526004018080602001828103825283818151815260200191508051906020019080838360005b8381101561042757808201518184015260208101905061040c565b50505050905090810190601f1680156104545780820380516001836020036101000a031916815260200191505b509250505060405180910390fd5b506000838503905080915050939250505056fea2646970667358221220f1ca92df9e18d18482d059a2f2fa62c0bf706b934b30f7e12eba0d881e59f14464736f6c634300060b0033",
  "immutableReferences": {},
  "source": "// SPDX-License-Identifier: MIT\n\npragma solidity 0.6.11;\n\nimport \"../Interfaces/ITellorCaller.sol\";\nimport \"./ITellor.sol\";\nimport \"./SafeMath.sol\";\n/*\n* This contract has a single external function that calls Tellor: getTellorCurrentValue(). \n*\n* The function is called by the Liquity contract PriceFeed.sol. If any of its inner calls to Tellor revert, \n* this function will revert, and PriceFeed will catch the failure and handle it accordingly.\n*\n* The function comes from Tellor's own wrapper contract, 'UsingTellor.sol':\n* https://github.com/tellor-io/usingtellor/blob/master/contracts/UsingTellor.sol\n*\n*/\ncontract TellorCaller is ITellorCaller {\n    using SafeMath for uint256;\n\n    ITellor public tellor;\n\n    constructor (address _tellorMasterAddress) public {\n        tellor = ITellor(_tellorMasterAddress);\n    }\n\n    /*\n    * getTellorCurrentValue(): identical to getCurrentValue() in UsingTellor.sol\n    *\n    * @dev Allows the user to get the latest value for the requestId specified\n    * @param _requestId is the requestId to look up the value for\n    * @return ifRetrieve bool true if it is able to retrieve a value, the value, and the value's timestamp\n    * @return value the value retrieved\n    * @return _timestampRetrieved the value's timestamp\n    */\n    function getTellorCurrentValue(uint256 _requestId)\n        external\n        view\n        override\n        returns (\n            bool ifRetrieve,\n            uint256 value,\n            uint256 _timestampRetrieved\n        )\n    {\n        uint256 _count = tellor.getNewValueCountbyRequestId(_requestId);\n        uint256 _time =\n            tellor.getTimestampbyRequestIDandIndex(_requestId, _count.sub(1));\n        uint256 _value = tellor.retrieveData(_requestId, _time);\n        if (_value > 0) return (true, _value, _time);\n        return (false, 0, _time);\n    }\n}\n",
  "sourcePath": "/Users/mac/Github/triangle-pricefeed/contracts/Dependencies/TellorCaller.sol",
  "compiler": {
    "name": "solc",
    "version": "0.6.11+commit.5ef660b1.Emscripten.clang"
  },
  "schemaVersion": "3.3.4",
  "updatedAt": "2021-12-04T04:33:24.421Z",
  "devdoc": {
    "kind": "dev",
    "methods": {},
    "version": 1
  },
  "userdoc": {
    "kind": "user",
    "methods": {},
    "version": 1
  }
}