{
  "contractName": "TriangleOracle",
  "abi": [
    {
      "anonymous": false,
      "inputs": [
        {
          "indexed": true,
          "internalType": "address",
          "name": "previousOwner",
          "type": "address"
        },
        {
          "indexed": true,
          "internalType": "address",
          "name": "newOwner",
          "type": "address"
        }
      ],
      "name": "OwnershipTransferred",
      "type": "event"
    },
    {
      "anonymous": false,
      "inputs": [
        {
          "indexed": false,
          "internalType": "int256",
          "name": "price",
          "type": "int256"
        },
        {
          "indexed": false,
          "internalType": "uint256",
          "name": "timestamp",
          "type": "uint256"
        },
        {
          "indexed": false,
          "internalType": "uint256",
          "name": "status",
          "type": "uint256"
        }
      ],
      "name": "PutLatestTokenPrice",
      "type": "event"
    },
    {
      "inputs": [],
      "name": "isOwner",
      "outputs": [
        {
          "internalType": "bool",
          "name": "",
          "type": "bool"
        }
      ],
      "stateMutability": "view",
      "type": "function",
      "constant": true
    },
    {
      "inputs": [],
      "name": "owner",
      "outputs": [
        {
          "internalType": "address",
          "name": "",
          "type": "address"
        }
      ],
      "stateMutability": "view",
      "type": "function",
      "constant": true
    },
    {
      "inputs": [
        {
          "internalType": "bytes32",
          "name": "_id",
          "type": "bytes32"
        },
        {
          "internalType": "int256",
          "name": "price",
          "type": "int256"
        },
        {
          "internalType": "uint256",
          "name": "timestamp",
          "type": "uint256"
        }
      ],
      "name": "putPrice",
      "outputs": [],
      "stateMutability": "nonpayable",
      "type": "function"
    },
    {
      "inputs": [
        {
          "internalType": "bytes32",
          "name": "_id",
          "type": "bytes32"
        }
      ],
      "name": "valueFor",
      "outputs": [
        {
          "internalType": "int256",
          "name": "",
          "type": "int256"
        },
        {
          "internalType": "uint256",
          "name": "",
          "type": "uint256"
        },
        {
          "internalType": "uint256",
          "name": "",
          "type": "uint256"
        }
      ],
      "stateMutability": "view",
      "type": "function",
      "constant": true
    }
  ],
  "bytecode": "0x608060405234801561001057600080fd5b50336000806101000a81548173ffffffffffffffffffffffffffffffffffffffff021916908373ffffffffffffffffffffffffffffffffffffffff1602179055503373ffffffffffffffffffffffffffffffffffffffff16600073ffffffffffffffffffffffffffffffffffffffff167f8be0079c531659141344cd1fd0a4f28419497f9722a3daafe3b4186f6b6457e060405160405180910390a3610350806100bb6000396000f3fe608060405234801561001057600080fd5b5060043610610069576000357c0100000000000000000000000000000000000000000000000000000000900480631dcf42d41461006e5780638da5cb5b146100b05780638f32d59b146100fa578063f78eea831461011c575b600080fd5b6100ae6004803603606081101561008457600080fd5b8101908080359060200190929190803590602001909291908035906020019092919050505061016c565b005b6100b8610277565b604051808273ffffffffffffffffffffffffffffffffffffffff1673ffffffffffffffffffffffffffffffffffffffff16815260200191505060405180910390f35b6101026102a0565b604051808215151515815260200191505060405180910390f35b6101486004803603602081101561013257600080fd5b81019080803590602001909291905050506102f7565b60405180848152602001838152602001828152602001935050505060405180910390f35b6101746102a0565b6101e6576040517f08c379a00000000000000000000000000000000000000000000000000000000081526004018080602001828103825260208152602001807f4f776e61626c653a2063616c6c6572206973206e6f7420746865206f776e657281525060200191505060405180910390fd5b600060c8905060405180606001604052808481526020018381526020018281525060016000820151816000015560208201518160010155604082015181600201559050507f73b1bdd90ee36fdd8a5c3708a49d5f538503006bcc7fd24ddd68cff5ace0c1f183838360405180848152602001838152602001828152602001935050505060405180910390a150505050565b60008060009054906101000a900473ffffffffffffffffffffffffffffffffffffffff16905090565b60008060009054906101000a900473ffffffffffffffffffffffffffffffffffffffff1673ffffffffffffffffffffffffffffffffffffffff163373ffffffffffffffffffffffffffffffffffffffff1614905090565b60008060006001600001546001800154600160020154925092509250919390925056fea26469706673582212200b9576c07724205645788b5113ac7421b5336ef6735f603a671eaa4821a94f3864736f6c634300060b0033",
  "immutableReferences": {},
  "source": "\npragma solidity 0.6.11;\nimport \"./Ownable.sol\";\nimport \"./Interfaces/IERC2362.sol\";\n\ncontract TriangleOracle is Ownable, IERC2362 {    \n\n    // 32 + 16 + 16 = 64 bytes\n    // default 1e+18 \n    struct PriceOracle {\n        int256 price;              // 16 bytes\n        uint256 timestamp;\n        uint256 status;           // 16 bytes\n    }\n    PriceOracle latestPrice;\n\n\n    event PutLatestTokenPrice(int256 price, uint256 timestamp, uint256 status);\n\n    function putPrice(bytes32 _id, int256 price, uint256 timestamp) public onlyOwner {\n        \n        uint256 _status = 200;\n        latestPrice = PriceOracle ({\n            price: price,\n            timestamp: timestamp,\n            status: _status\n        });\n\n        emit PutLatestTokenPrice(price,timestamp, _status);\n\n    }\n\n    function valueFor(bytes32 _id) external view override returns(int256,uint256,uint256) {\n        return (latestPrice.price, latestPrice.timestamp, latestPrice.status);\n    }\n\n}\n\n\n",
  "sourcePath": "/Users/mac/Github/triangle-pricefeed/contracts/TriangleOracle.sol",
  "compiler": {
    "name": "solc",
    "version": "0.6.11+commit.5ef660b1.Linux.g++"
  },
  "schemaVersion": "3.3.4",
  "updatedAt": "2021-12-07T12:42:33.831Z",
  "networkType": "conflux",
  "devdoc": {
    "kind": "dev",
    "methods": {
      "isOwner()": {
        "details": "Returns true if the caller is the current owner."
      },
      "owner()": {
        "details": "Returns the address of the current owner."
      },
      "valueFor(bytes32)": {
        "details": "Exposed function pertaining to EIP standards",
        "params": {
          "_id": "bytes32 ID of the query"
        },
        "returns": {
          "_0": "int,uint,uint returns the value, timestamp, and status code of query"
        }
      }
    },
    "version": 1
  },
  "userdoc": {
    "kind": "user",
    "methods": {},
    "version": 1
  }
}